{"abi":[{"type":"function","name":"auctionCounter","inputs":[],"outputs":[{"name":"","type":"uint256","internalType":"uint256"}],"stateMutability":"view"},{"type":"function","name":"auctions","inputs":[{"name":"","type":"uint256","internalType":"uint256"}],"outputs":[{"name":"seller","type":"address","internalType":"address"},{"name":"nftContract","type":"address","internalType":"address"},{"name":"tokenId","type":"uint256","internalType":"uint256"},{"name":"reservePrice","type":"uint256","internalType":"uint256"},{"name":"deadline","type":"uint256","internalType":"uint256"},{"name":"highestBidder","type":"address","internalType":"address"},{"name":"highestBid","type":"uint256","internalType":"uint256"},{"name":"ended","type":"bool","internalType":"bool"}],"stateMutability":"view"},{"type":"function","name":"bid","inputs":[{"name":"auctionId","type":"uint256","internalType":"uint256"}],"outputs":[],"stateMutability":"payable"},{"type":"function","name":"deposit","inputs":[{"name":"nftContract","type":"address","internalType":"address"},{"name":"tokenId","type":"uint256","internalType":"uint256"},{"name":"reservePrice","type":"uint256","internalType":"uint256"},{"name":"duration","type":"uint256","internalType":"uint256"}],"outputs":[{"name":"auctionId","type":"uint256","internalType":"uint256"}],"stateMutability":"nonpayable"},{"type":"function","name":"endAuction","inputs":[{"name":"auctionId","type":"uint256","internalType":"uint256"}],"outputs":[],"stateMutability":"nonpayable"},{"type":"event","name":"AuctionCreated","inputs":[{"name":"auctionId","type":"uint256","indexed":true,"internalType":"uint256"},{"name":"seller","type":"address","indexed":true,"internalType":"address"},{"name":"reservePrice","type":"uint256","indexed":false,"internalType":"uint256"},{"name":"deadline","type":"uint256","indexed":false,"internalType":"uint256"}],"anonymous":false},{"type":"event","name":"AuctionEnded","inputs":[{"name":"auctionId","type":"uint256","indexed":true,"internalType":"uint256"},{"name":"winner","type":"address","indexed":false,"internalType":"address"},{"name":"finalBid","type":"uint256","indexed":false,"internalType":"uint256"}],"anonymous":false},{"type":"event","name":"BidPlaced","inputs":[{"name":"auctionId","type":"uint256","indexed":true,"internalType":"uint256"},{"name":"bidder","type":"address","indexed":true,"internalType":"address"},{"name":"amount","type":"uint256","indexed":false,"internalType":"uint256"}],"anonymous":false}],"bytecode":{"object":"0x6080604052348015600e575f5ffd5b506111e78061001c5f395ff3fe608060405260043610610049575f3560e01c8063454a2ab31461004d578063571a26a014610069578063a7e76644146100ac578063b9a2de3a146100d6578063ce88b439146100fe575b5f5ffd5b61006760048036038101906100629190610c10565b61013a565b005b348015610074575f5ffd5b5061008f600480360381019061008a9190610c10565b6103ef565b6040516100a3989796959493929190610ca3565b60405180910390f35b3480156100b7575f5ffd5b506100c061049b565b6040516100cd9190610d1f565b60405180910390f35b3480156100e1575f5ffd5b506100fc60048036038101906100f79190610c10565b6104a1565b005b348015610109575f5ffd5b50610124600480360381019061011f9190610d62565b61093f565b6040516101319190610d1f565b60405180910390f35b5f5f5f8381526020019081526020015f209050806007015f9054906101000a900460ff161561019e576040517f08c379a000000000000000000000000000000000000000000000000000000000815260040161019590610e20565b60405180910390fd5b806004015442106101e4576040517f08c379a00000000000000000000000000000000000000000000000000000000081526004016101db90610e88565b60405180910390fd5b8060060154341161022a576040517f08c379a000000000000000000000000000000000000000000000000000000000815260040161022190610ef0565b60405180910390fd5b5f73ffffffffffffffffffffffffffffffffffffffff16816005015f9054906101000a900473ffffffffffffffffffffffffffffffffffffffff1673ffffffffffffffffffffffffffffffffffffffff1614610351575f816005015f9054906101000a900473ffffffffffffffffffffffffffffffffffffffff1673ffffffffffffffffffffffffffffffffffffffff1682600601546040516102cc90610f3b565b5f6040518083038185875af1925050503d805f8114610306576040519150601f19603f3d011682016040523d82523d5f602084013e61030b565b606091505b505090508061034f576040517f08c379a000000000000000000000000000000000000000000000000000000000815260040161034690610f99565b60405180910390fd5b505b33816005015f6101000a81548173ffffffffffffffffffffffffffffffffffffffff021916908373ffffffffffffffffffffffffffffffffffffffff1602179055503481600601819055503373ffffffffffffffffffffffffffffffffffffffff16827f0e54eff26401bf69b81b26f60bd85ef47f5d85275c1d268d84f68d6897431c47346040516103e39190610d1f565b60405180910390a35050565b5f602052805f5260405f205f91509050805f015f9054906101000a900473ffffffffffffffffffffffffffffffffffffffff1690806001015f9054906101000a900473ffffffffffffffffffffffffffffffffffffffff1690806002015490806003015490806004015490806005015f9054906101000a900473ffffffffffffffffffffffffffffffffffffffff1690806006015490806007015f9054906101000a900460ff16905088565b60015481565b5f5f5f8381526020019081526020015f20905080600401544210156104fb576040517f08c379a00000000000000000000000000000000000000000000000000000000081526004016104f290611001565b60405180910390fd5b806007015f9054906101000a900460ff161561054c576040517f08c379a000000000000000000000000000000000000000000000000000000000815260040161054390611069565b60405180910390fd5b6001816007015f6101000a81548160ff02191690831515021790555080600301548160060154106106ff57806001015f9054906101000a900473ffffffffffffffffffffffffffffffffffffffff1673ffffffffffffffffffffffffffffffffffffffff166323b872dd30836005015f9054906101000a900473ffffffffffffffffffffffffffffffffffffffff1684600201546040518463ffffffff1660e01b81526004016105fe93929190611087565b5f604051808303815f87803b158015610615575f5ffd5b505af1158015610627573d5f5f3e3d5ffd5b505050505f815f015f9054906101000a900473ffffffffffffffffffffffffffffffffffffffff1673ffffffffffffffffffffffffffffffffffffffff16826006015460405161067690610f3b565b5f6040518083038185875af1925050503d805f81146106b0576040519150601f19603f3d011682016040523d82523d5f602084013e6106b5565b606091505b50509050806106f9576040517f08c379a00000000000000000000000000000000000000000000000000000000081526004016106f090610f99565b60405180910390fd5b506108da565b806001015f9054906101000a900473ffffffffffffffffffffffffffffffffffffffff1673ffffffffffffffffffffffffffffffffffffffff166323b872dd30835f015f9054906101000a900473ffffffffffffffffffffffffffffffffffffffff1684600201546040518463ffffffff1660e01b815260040161078593929190611087565b5f604051808303815f87803b15801561079c575f5ffd5b505af11580156107ae573d5f5f3e3d5ffd5b505050505f73ffffffffffffffffffffffffffffffffffffffff16816005015f9054906101000a900473ffffffffffffffffffffffffffffffffffffffff1673ffffffffffffffffffffffffffffffffffffffff16146108d9575f816005015f9054906101000a900473ffffffffffffffffffffffffffffffffffffffff1673ffffffffffffffffffffffffffffffffffffffff16826006015460405161085490610f3b565b5f6040518083038185875af1925050503d805f811461088e576040519150601f19603f3d011682016040523d82523d5f602084013e610893565b606091505b50509050806108d7576040517f08c379a00000000000000000000000000000000000000000000000000000000081526004016108ce90610f99565b60405180910390fd5b505b5b817fd2aa34a4fdbbc6dff6a3e56f46e0f3ae2a31d7785ff3487aa5c95c642acea501826005015f9054906101000a900473ffffffffffffffffffffffffffffffffffffffff1683600601546040516109339291906110bc565b60405180910390a25050565b5f8473ffffffffffffffffffffffffffffffffffffffff166323b872dd3330876040518463ffffffff1660e01b815260040161097d93929190611087565b5f604051808303815f87803b158015610994575f5ffd5b505af11580156109a6573d5f5f3e3d5ffd5b5050505060015f8154809291906109bc90611110565b9190505590506040518061010001604052803373ffffffffffffffffffffffffffffffffffffffff1681526020018673ffffffffffffffffffffffffffffffffffffffff1681526020018581526020018481526020018342610a1e9190611157565b81526020015f73ffffffffffffffffffffffffffffffffffffffff1681526020015f81526020015f15158152505f5f8381526020019081526020015f205f820151815f015f6101000a81548173ffffffffffffffffffffffffffffffffffffffff021916908373ffffffffffffffffffffffffffffffffffffffff1602179055506020820151816001015f6101000a81548173ffffffffffffffffffffffffffffffffffffffff021916908373ffffffffffffffffffffffffffffffffffffffff16021790555060408201518160020155606082015181600301556080820151816004015560a0820151816005015f6101000a81548173ffffffffffffffffffffffffffffffffffffffff021916908373ffffffffffffffffffffffffffffffffffffffff16021790555060c0820151816006015560e0820151816007015f6101000a81548160ff0219169083151502179055509050503373ffffffffffffffffffffffffffffffffffffffff16817fc9050d42180a61cb0d9ebb8ad118b62fe6eab12cf12ff752c4a0cc7da9ddf627858542610bbb9190611157565b604051610bc992919061118a565b60405180910390a3949350505050565b5f5ffd5b5f819050919050565b610bef81610bdd565b8114610bf9575f5ffd5b50565b5f81359050610c0a81610be6565b92915050565b5f60208284031215610c2557610c24610bd9565b5b5f610c3284828501610bfc565b91505092915050565b5f73ffffffffffffffffffffffffffffffffffffffff82169050919050565b5f610c6482610c3b565b9050919050565b610c7481610c5a565b82525050565b610c8381610bdd565b82525050565b5f8115159050919050565b610c9d81610c89565b82525050565b5f61010082019050610cb75f83018b610c6b565b610cc4602083018a610c6b565b610cd16040830189610c7a565b610cde6060830188610c7a565b610ceb6080830187610c7a565b610cf860a0830186610c6b565b610d0560c0830185610c7a565b610d1260e0830184610c94565b9998505050505050505050565b5f602082019050610d325f830184610c7a565b92915050565b610d4181610c5a565b8114610d4b575f5ffd5b50565b5f81359050610d5c81610d38565b92915050565b5f5f5f5f60808587031215610d7a57610d79610bd9565b5b5f610d8787828801610d4e565b9450506020610d9887828801610bfc565b9350506040610da987828801610bfc565b9250506060610dba87828801610bfc565b91505092959194509250565b5f82825260208201905092915050565b7f41756374696f6e20616c726561647920656e64656400000000000000000000005f82015250565b5f610e0a601583610dc6565b9150610e1582610dd6565b602082019050919050565b5f6020820190508181035f830152610e3781610dfe565b9050919050565b7f41756374696f6e206578706972656400000000000000000000000000000000005f82015250565b5f610e72600f83610dc6565b9150610e7d82610e3e565b602082019050919050565b5f6020820190508181035f830152610e9f81610e66565b9050919050565b7f42696420746f6f206c6f770000000000000000000000000000000000000000005f82015250565b5f610eda600b83610dc6565b9150610ee582610ea6565b602082019050919050565b5f6020820190508181035f830152610f0781610ece565b9050919050565b5f81905092915050565b50565b5f610f265f83610f0e565b9150610f3182610f18565b5f82019050919050565b5f610f4582610f1b565b9150819050919050565b7f5472616e73666572206661696c656400000000000000000000000000000000005f82015250565b5f610f83600f83610dc6565b9150610f8e82610f4f565b602082019050919050565b5f6020820190508181035f830152610fb081610f77565b9050919050565b7f41756374696f6e207374696c6c206163746976650000000000000000000000005f82015250565b5f610feb601483610dc6565b9150610ff682610fb7565b602082019050919050565b5f6020820190508181035f83015261101881610fdf565b9050919050565b7f41756374696f6e20697320656e646564000000000000000000000000000000005f82015250565b5f611053601083610dc6565b915061105e8261101f565b602082019050919050565b5f6020820190508181035f83015261108081611047565b9050919050565b5f60608201905061109a5f830186610c6b565b6110a76020830185610c6b565b6110b46040830184610c7a565b949350505050565b5f6040820190506110cf5f830185610c6b565b6110dc6020830184610c7a565b9392505050565b7f4e487b71000000000000000000000000000000000000000000000000000000005f52601160045260245ffd5b5f61111a82610bdd565b91507fffffffffffffffffffffffffffffffffffffffffffffffffffffffffffffffff820361114c5761114b6110e3565b5b600182019050919050565b5f61116182610bdd565b915061116c83610bdd565b9250828201905080821115611184576111836110e3565b5b92915050565b5f60408201905061119d5f830185610c7a565b6111aa6020830184610c7a565b939250505056fea2646970667358221220c1f518727c9d21d6af244106d34cb19112ed34dbb3bcfc5d4bb87960f2e0edd264736f6c63430008210033","linkReferences":{}},"methodIdentifiers":{"auctionCounter()":"a7e76644","auctions(uint256)":"571a26a0","bid(uint256)":"454a2ab3","deposit(address,uint256,uint256,uint256)":"ce88b439","endAuction(uint256)":"b9a2de3a"},"id":2}